:100000000C9401010C9430010C941E010C94960286
:100010000C941E010C9410050C941E010C941E01EE
:100020000C941E010C941E010C941E010C94AF0242
:100030000C941E010C941E010C941B050C941E01C3
:100040000C941E010C941E010C941E010C941E01B4
:100050000C941E010C941E010C941E010C941E01A4
:100060000C941E010C941E010010080402010000F3
:100070004D656E753A005468726573686F6C6420E4
:1000800053656C6563740043796C73202F2047615E
:100090006C73004B797A656E3A0020202044493A0F
:1000A000005761746572205573616765204D6F6EEE
:1000B00069746F72004C6F6164696E672E2E2E003A
:1000C000001F000000001F00001F101010101F0074
:1000D000001F181818181F00001F1C1C1C1C1F00D4
:1000E000001F1E1E1E1E1F00001F1F1F1F1F1F00A0
:1000F00003070F1F0F070300181C1E1F1E1C1800EC
:100100006E616E00696E660000407A10F35A00A0BE
:10011000724E18090010A5D4E80000E876481700D0
:1001200000E40B54020000CA9A3B000000E1F50510
:10013000000080969800000040420F000000A0865A
:1001400001000000102700000000E803000000008C
:100150006400000000000A00000000000100000030
:1001600000002C76D888DC674F0823DFC1DFAE594A
:10017000E1B1B796E5E3E453C63AE651997696E8DD
:10018000E6C28426EB898C9B62ED407C6FFCEFBC61
:100190009C9F40F2BAA56FA5F490055A2AF75C938C
:1001A0006B6CF9676DC11BFCE0E40D47FEF520E6C2
:1001B000B500D0ED902E0300943577050080841EA5
:1001C000080000204E0A000000C80C333333330F00
:1001D000986E12831141EF8D2114893BE65516CF9D
:1001E000FEE6DB18D1844B381BF77C1D901DA4BBA9
:1001F000E424203284725E228100C9F124ECA1E55E
:100200003D2711241FBECFEFD4E0DEBFCDBF11E0EC
:10021000A0E0B1E0ECE4F5E202C005900D92AE3250
:10022000B107D9F721E0AEE2B1E001C01D92A336DB
:10023000B207E1F70E94BD0A0C94A4120C940000CE
:1002400080913A018D7F8E7F80933A018BB18760D8
:100250008BB9E89AE9E6F0E08081826080830895B6
:100260001F920F920FB60F9211242F933F934F932B
:100270005F936F937F938F939F93AF93BF93EF930E
:10028000FF93AFE9BFE01197F1F700C0000049B15B
:1002900059B151FB222720F930E0447050E05595C8
:1002A0004795242B352B232BD1F4AFE9BFE01197D1
:1002B000F1F700C0000029B139B131FB662760F9C0
:1002C00070E0247030E035952795622B732B672BF7
:1002D00031F420913A0121602D7F20933A0129B118
:1002E00039B131FB882780F990E0247030E03595F2
:1002F0002795822B932B0197D1F48FE99FE00197EB
:10030000F1F700C0000089B199B191FBEE27E0F947
:10031000F0E0847090E095958795E82BF92B319764
:1003200031F480913A018E7F826080933A01FF918F
:10033000EF91BF91AF919F918F917F916F915F915D
:100340004F913F912F910F900FBE0F901F901895D6
:1003500080914701887F877F8093470180E090E00C
:10036000A0E0B0E480935D0190935E01A0935F01F3
:10037000B09360018093430190934401A0934501A1
:10038000B09346018093340190933501A0933601D8
:10039000B0933701289AE8E6F0E08081816080839D
:1003A000EBE6F0E0808181608083E1E8F0E080812D
:1003B0008C608083EFE6F0E080818260808384E25D
:1003C00094EF9093890080938800109249011092D5
:1003D0004A0110924B0110924C0110923D01109273
:1003E0003E0110923F011092400110923C01109288
:1003F0003B0110925701109258011092590110922E
:100400005A01109242011092410110925201109231
:10041000510110925C0110925B018FE080934D01BD
:100420001092620110926101089520914301309170
:100430004401409145015091460160913D01709108
:100440003E0180913F01909140010E94B90C8823A8
:10045000A4F420913401309135014091360150913E
:100460003701609157017091580180915901909125
:100470005A010E94B90C882334F0809147018160B1
:100480008093470105C0809147018E7F809347018B
:1004900080914D018B3080F48091510190915201F7
:1004A0000A9750F010926201109261018091470109
:1004B00088608093470110C080914D018B3460F0BB
:1004C0008FE080934D0180916101909162010196CE
:1004D000909362018093610180916101909162012A
:1004E000029718F18091470183FF1FC0877F809397
:1004F0004701109262011092610180913B0190913D
:100500003C01019690933C0180933B018091410115
:10051000909142010196909342018093410181E0C4
:100520000E94B60482E00E94B60408951F920F92C2
:100530000FB60F9211248F939F93189B09C080913F
:100540005B0190915C01019690935C0180935B014B
:100550009F918F910F900FBE0F901F9018951F9233
:100560000F920FB60F9211242F933F934F935F93E7
:100570006F937F938F939F93AF93BF93EF93FF936B
:1005800080915B0190915C019093520180935101A5
:100590008091470181FB222720F991E0922790FB6F
:1005A00081F9809347018091510190915201892BEB
:1005B00009F44CC0609151017091520180E090E0CB
:1005C0000E942B0C20E030E849E054E40E94C30B69
:1005D0009B01AC0160913D0170913E0180913F0112
:1005E000909140010E945F0B60933D0170933E012A
:1005F00080933F01909340016091510170915201AD
:1006000080E090E00E942B0C20E030E849E054E4C8
:100610000E94C30B9B01AC0160915701709158017E
:100620008091590190915A010E945F0B609357018C
:10063000709358018093590190935A0110924D0183
:10064000809147018460809347010AC080914D01E9
:100650008F5F80934D01809147018B7F809347018D
:1006600010925C0110925B01FF91EF91BF91AF91ED
:100670009F918F917F916F915F914F913F912F91BA
:100680000F900FBE0F901F9018954B9905C0409189
:100690003801242F217002C020E030E03091560153
:1006A00020FB30F930935601489905C0209138015C
:1006B000822F817002C080E090E09091560180FB13
:1006C00092F99093560192FF09C08091380183FFFF
:1006D0000AC0892F88608093560105C08091560119
:1006E000877F809356018091560180FF0AC08091D8
:1006F000380183FF0BC080915601826080935601C0
:100700000895809156018D7F8093560108958091C0
:100710004E0190914F0121E0892B09F420E0809156
:10072000380120FB80F98093380180914E0190912F
:100730004F0121E0059708F420E08091380120FB6B
:1007400081F98093380180914E0190914F0121E011
:100750000A9708F420E08091380120FB82F9809309
:10076000380180914E0190914F0121E0883E9340E5
:1007700008F420E08091380120FB83F98093380150
:10078000809153019091540121E0892B09F420E0DC
:100790008091550120FB80F9809355018091530190
:1007A0009091540121E0059708F420E080915501D3
:1007B00020FB81F980935501809153019091540160
:1007C00021E00A9708F420E08091550120FB82F98E
:1007D00080935501809153019091540121E0883E0E
:1007E000934008F420E08091550120FB83F9809329
:1007F000550183FF03C080618093550180914E01B4
:1008000090914F01883E934048F010924F01109212
:100810004E018091380180618093380180915301AD
:1008200090915401883E934048F080915501806139
:1008300080935501109254011092530108958091B4
:10084000550184FF0AC080914801813031F482E073
:100850000E94FD0883E00E94FD088091470180FF0F
:100860000CC08091550184FF0DC08F7E809355018F
:100870009BB180E189278BB908958091480181302F
:1008800009F45C98089580E090E00E9468128093DB
:100890003B0110923C0188E090E00E946812809336
:1008A00041011092420180E190E00E947012609339
:1008B0003D0170933E0180933F019093400180E39E
:1008C00090E00E94701260935701709358018093DA
:1008D000590190935A0180E590E00E947012609354
:1008E000430170934401809345019093460180E752
:1008F00090E00E94701260933401709335018093F0
:10090000360190933701089580915601887F877F43
:100910008093560180913801807F8F7E80933801CB
:1009200080915501807F8F7E8093550110924F01F9
:1009300010924E0180E18AB95B9AE8E6F0E090817E
:1009400094609083EDE6F0E090819960908394B597
:10095000926094BD95B5956095BDEEE6F0E090810E
:100960009260908387BD0E9443040895CF93C82F5F
:100970008130D1F18430A9F544C040913D015091BE
:100980003E0160913F017091400180E190E00E9442
:10099000881240915701509158016091590170910E
:1009A0005A0180E390E00E948812C350C230B0F533
:1009B000409143015091440160914501709146017D
:1009C00080E590E00E9488124091340150913501F9
:1009D000609136017091370180E790E00E948812A3
:1009E0001DC0823011F7C9CF60913B0180E090E0DB
:1009F0000E9476126091410188E090E00E94761298
:100A0000D4CF60913B0180E090E00E94761260912B
:100A1000410188E090E00E947612AFCFCF91089517
:100A20001F920F920FB60F92112416BC0F900FBE9B
:100A30000F901F9018951F920F920FB60F921124CE
:100A40008F939F934B9B02C048990AC080914E019F
:100A500090914F01019690934F0180934E0104C0F5
:100A600010924F0110924E018091530190915401C8
:100A7000019690935401809353019F918F910F9011
:100A80000FBE0F901F90189584E6EFE3FCE93197B5
:100A9000F1F700C000008150C1F70895CF930E9484
:100AA000440542E066E085EB90E00E94C309C0E0A7
:100AB0008FE39CE90197F1F700C0000063E081E05B
:100AC0000E94B40940E16FEF8C2F0E94640ACF5F4F
:100AD000CF3F71F7CF910895CF93DF93EC0160E0A2
:100AE00088E690E00E94E10961E081E00E94B4099B
:100AF0008881853021F158F48230A9F018F48130D2
:100B0000A1F50DC0833099F0843079F514C0873099
:100B1000F1F0C8F08830F9F08A3039F522C08DE262
:100B20000E94720925C08FE20E94720921C08CE7E1
:100B30000E9472091DC088E00E94720919C08DE2EE
:100B40000E94720915C08FE20E94720911C08CE7E1
:100B50000E9472090DC088E00E94720981E08883BA
:100B600007C080E20E94720903C08FE20E947209EE
:100B7000DF91CF9108950E94960940E060E081EAFC
:100B800090E00E94C3090E944E050E9496090895B4
:100B900040E060E081EA90E00E94C30941E068E043
:100BA00087E890E00E94C30942E061E08AE990E0B2
:100BB0000E94C30943E061E083E990E00E94C30919
:100BC00008954F925F926F927F928F929F92AF9211
:100BD000BF92CF92DF92EF92FF920F931F93CF932A
:100BE000DF93CDB7DEB72E970FB6F894DEBF0FBEFA
:100BF000CDBF882E962E87E0CC24C394D12CCC0E6A
:100C0000DD1EF601982F11929A95E9F73E01E8E072
:100C10006E0E711CF30111928A95E9F75F934F9361
:100C20003F932F930F2EF0E0AF2EF1E0BF2EF02D6B
:100C3000BF92AF92DF92CF920E94E8111F930F9361
:100C4000FF92EF92BF92AF927F926F920E94E81153
:100C500062E088E00E94B409E82CFF24E7FCF094ED
:100C60000F2EF0E1AF2EF7E2BF2EF02DC701B50138
:100C70000E94631008EE13E0B8010E946310862FF3
:100C8000805D0E94720962E089E00E94B409C70198
:100C9000B8010E9463100F2EF4E6EF2EF12CF02D18
:100CA000B7010E946310862F805D0E94720962E086
:100CB0008AE00E94B409F82D29E2F202812D112464
:100CC0008595859585958595482C440C440884190F
:100CD0000F2EF4E65F2EF02D982D859D901911248E
:100CE000E7E69E02812D11248595859597FD8395D4
:100CF000805D0E94720962E08BE00E94B409F82DC9
:100D000027E6F202812D1124859585958419880F97
:100D1000982F990F990F890F881A882D805D0E944E
:100D2000720962E08DE00E94B40967E0C6010E948A
:100D30009A0963E088E00E94B409C92CDD24C7FC4D
:100D4000D094C601B5010E946310B8010E946310DF
:100D5000862F805D0E94720963E089E00E94B409D9
:100D6000C601B8010E946310B7010E946310862F6C
:100D7000805D0E94720963E08AE00E94B409992DA7
:100D8000E9E29E02812D11248595859585958595AD
:100D9000192D110F110B811B859D90191124F7E658
:100DA0009F02812D11248595859597FD8395805D02
:100DB0000E94720963E08BE00E94B409292D97E636
:100DC0002902812D112485958595811B880F982FE7
:100DD000990F990F890F981A892D805D0E947209C9
:100DE00063E08DE00E94B40967E0C3010E949A09A4
:100DF0000FB6F894DEBF0FBECDBF2E960FB6F89497
:100E0000DEBF0FBECDBFDF91CF911F910F91FF903D
:100E1000EF90DF90CF90BF90AF909F908F907F909A
:100E20006F905F904F900895CF92DF92EF92FF9274
:100E30000F931F93CF93DF93CDB7DEB7A6970FB66F
:100E4000F894DEBF0FBECDBFFE01319682E1DF0117
:100E50001D928A95E9F7FE01739684E1DF011D92E8
:100E60008A95E9F780913A0180FF38C08E7F8093A0
:100E70003A0180912E018230B9F420E030E040E860
:100E80005FE360914301709144018091450190912D
:100E900046010E945F0B609343017093440180936D
:100EA0004501909346017EC0833009F07BC020E06D
:100EB00030E040E85FE3609134017091350180914A
:100EC0003601909137010E945F0B6093340170935B
:100ED0003501809336019093370164C081FF62C071
:100EE00080913A018D7F80933A0180912E0182306A
:100EF00061F5C0904301D0904401E0904501F0902D
:100F0000460120E030E040E85FE3C701B6010E94FF
:100F1000B90C88238CF020E030E040E85FE3C701A3
:100F2000B6010E945E0B609343017093440180936D
:100F300045019093460136C010924301109244013E
:100F400010924501109246012DC0833059F5C09092
:100F50003401D0903501E0903601F090370120E067
:100F600030E040E85FE3C701B6010E94B90C882376
:100F70008CF020E030E040E85FE3C701B6010E945A
:100F80005E0B60933401709335018093360190932A
:100F9000370108C0109234011092350110923601C9
:100FA000109237018091560182FF10C08091380164
:100FB00084FF0CC08F7E8093380180912E01823097
:100FC00011F483E001C082E080932E0180912E0114
:100FD000833099F480914801823019F562E080E015
:100FE0000E94B40980E20E94720963E080E00E94DE
:100FF000B4098EE70E94720914C0823091F4809186
:101000004801823071F462E080E00E94B4098EE70A
:101010000E94720963E080E00E94B40980E20E94AD
:101020007209809146018F93809145018F93809141
:1010300044018F93809143018F938DE091E09F93C2
:101040008F938E010F5F1F4F1F930F930E94E81124
:10105000809137018F93809136018F938091350174
:101060008F93809134018F938CE191E09F938F93C4
:101070007E01B3E1EB0EF11CFF92EF920E94E811AA
:1010800040E060E086E790E00E94C30941E060E054
:1010900080E790E00E94C30962E084E00E94B40906
:1010A00060E1C8010E949A0963E081E00E94B409EE
:1010B00063E1C7010E949A090FB6F894DEBF0FBE24
:1010C000CDBFA6960FB6F894DEBF0FBECDBFDF91A1
:1010D000CF911F910F91FF90EF90DF90CF900895E7
:1010E0008130B1F48091470181FF0AC080912F01C6
:1010F000883010F48F5F01C081E080932F010DC014
:1011000080912F01883008F081E080932F0105C085
:10111000811103C08AE080932F018FE291E00E9449
:101120006C0508951092300190913A019370D9F0B6
:1011300090913A019D7F9E7F90933A019091310169
:10114000923049F493E09093310122E020933201F0
:101150009093330108C092E09093310123E02093F3
:101160003201909333018130A9F56091310180E023
:101170000E94B4098EE70E94720960913201809149
:1011800030010E94B40980E20E94720980915601E8
:1011900082FF32C080913301823069F410923D01A8
:1011A00010923E0110923F011092400110923C01BA
:1011B00010923B0108958330F9F410925701109278
:1011C00058011092590110925A0110924201109246
:1011D00041010895811110C0609131010E94B4094C
:1011E00080E20E94720960913201809130010E9478
:1011F000B40980E20E9472090895823021F520919D
:101200004301309144014091450150914601609164
:101210003D0170913E0180913F01909140010E94FB
:10122000B90C882344F062E08CE00E94B40981E2AA
:101230000E947209089562E08CE00E94B40980E285
:101240000E9472090895833019F52091340130917C
:1012500035014091360150913701609157017091ED
:1012600058018091590190915A010E94B90C88232C
:1012700044F063E08CE00E94B40981E20E947209AC
:10128000089563E08CE00E94B40980E20E94720934
:101290000895882314F4459A01C0459886FF02C03A
:1012A000449A01C0449885FF02C0439A01C0439804
:1012B00084FF02C0429A01C0429883FF02C0419A53
:1012C00001C0419882FF02C0409A01C0409881FF4E
:1012D00002C05D9A01C05D9880FF02C05E9A0895C9
:1012E0005E9808950E9449092A9A5F9A8FE99FE0C3
:1012F0000197F1F700C000005F982A988FE99FE0FE
:101300000197F1F700C0000008950E9449095F9A13
:101310008FE99FE00197F1F700C000005F988FE927
:101320009FE00197F1F700C00000089581E00E945E
:10133000850908950F931F93CF93DF93009779F05A
:10134000662369F0EC018C010F5F1F4F6150060F9F
:10135000111D89910E947209C017D107D1F7DF9141
:10136000CF911F910F910895623031F0633031F0C9
:10137000613029F4805C03C08C5E01C08C5A8068A7
:101380000E94850908951F93CF93DF93EC01862F68
:10139000642F0E94B4099E01FE018491882369F0A4
:1013A00010E0F90184910E9472091F5F9E01210FD4
:1013B000311DF90184918111F4CFDF91CF911F91FB
:1013C0000895EF92FF920F931F93CF93DF938C01B9
:1013D000660F660F660F6894EE24E6F8E62AC0E012
:1013E000D0E0F801EC0FFD1FF4908C2F8E0D0E94C1
:1013F00085098F2D0E9472092196C830D10589F781
:10140000DF91CF911F910F91FF90EF9008951F935F
:10141000CF93DF938FE59AEE0197F1F700C00000BC
:1014200080E00E9449092A9829985F98569A559A0F
:10143000389A399A3A9A3B9A3C9A3D9A229A219A3A
:10144000579A80E30E9449095F9A8FE99FE00197CC
:10145000F1F700C000005F988FE99FE00197F1F776
:1014600000C000005F9A8FE99FE00197F1F700C08C
:1014700000005F988FE99FE00197F1F700C000003E
:101480005F9A8FE99FE00197F1F700C000005F9835
:101490008FE99FE00197F1F700C0000088E30E9408
:1014A00085098CE00E948509C0ECD0E060E0162F31
:1014B0001F5FCE010E94E1092896612F1830B9F70D
:1014C000DF91CF911F910895BF92CF92DF92EF925B
:1014D000FF920F931F93CF93DF93F42E242F30E0CE
:1014E000F901EE0FFF1F2E0F3F1F220F331F482F52
:1014F000429FC001439F900D112470E00E94631031
:10150000E62F062F172FFF2071F1262F372FABEA7A
:10151000BAEA0E9477109695879596958795AC01C3
:10152000440F551F840F951F880F991FC0E0D0E00E
:10153000E12C0F2EF5E0DF2EF02DBE2EB81AC12CB7
:10154000CE0105960817190728F40C171D0720F47B
:101550008C2D03C08D2D01C08B2D0E947209E39448
:101560002696EF10EDCFDF91CF911F910F91FF9055
:10157000EF90DF90CF90BF9008950E9484040E9466
:10158000070A0E94BB050E9420010E94A8010E9438
:10159000D90A0E9496090E94960978940E94150221
:1015A0000E9487030E9445030E941F040E944E0B65
:1015B000F5CF81E0809348010895EF92FF920F9359
:1015C0001F930E94C805E0905701F09058010091C8
:1015D000590110915A0120913D0130913E014091F5
:1015E0003F01509140016091410180913B010E9477
:1015F000E1058091470182FF0AC0809151019091DD
:1016000052010A9720F081E00E94700803C080E038
:101610000E9470088091560181FF04C081E00E9401
:10162000920803C080E00E94920880915601897060
:10163000883099F482E0809348015C9A80913A0165
:101640008D7F8E7F80933A0180915601817F8E7FBE
:10165000809356010E94960903C081E0809348015F
:101660001F910F91FF90EF9008950E9414078091B1
:10167000560181FF0FC083E00E94B60481E0809391
:101680004801809156018D7F809356015C980E949D
:101690009609089582E08093480108958091480159
:1016A000813019F0823039F403C00E94DD0A0895B8
:1016B0000E94350B08950E94DD0A08955058BB27FB
:1016C000AA270ED01CC10DD130F012D120F031F478
:1016D0009F3F11F41EF402C10EF4E095E7FBF8C041
:1016E000E92F1ED180F3BA176207730784079507A5
:1016F00018F071F49EF536C10EF4E0950B2EBA2F5A
:10170000A02D0B01B90190010C01CA01A001112407
:10171000FF27591B99F0593F50F4503E68F11A16B3
:10172000F040A22F232F342F4427585FF3CF469544
:1017300037952795A795F0405395C9F77EF41F1666
:10174000BA0B620B730B840BBAF09150A1F0FF0F30
:10175000BB1F661F771F881FC2F70EC0BA0F621F1C
:10176000731F841F48F4879577956795B795F7950C
:101770009E3F08F0B3CF9395880F08F09927EE0F9E
:101780009795879508950CD0BAC0B2D040F0A9D0F3
:1017900030F021F45F3F19F09BC05111E4C09EC0AE
:1017A000BFD098F39923C9F35523B1F3951B550B7B
:1017B000BB27AA2762177307840738F09F5F5F4F24
:1017C000220F331F441FAA1FA9F333D00E2E3AF065
:1017D000E0E830D091505040E695001CCAF729D07F
:1017E000FE2F27D0660F771F881FBB1F26173707CE
:1017F0004807AB07B0E809F0BB0B802DBF01FF27FE
:1018000093585F4F2AF09E3F510568F061C0ABC00E
:101810005F3FECF3983EDCF3869577956795B79537
:10182000F7959F5FC9F7880F911D9695879597F952
:101830000895E1E0660F771F881FBB1F62177307CB
:101840008407BA0720F0621B730B840BBA0BEE1FE0
:1018500088F7E0950895E89409C097FB3EF49095C9
:101860008095709561957F4F8F4F9F4F9923A9F079
:10187000F92F96E9BB279395F69587957795679508
:10188000B795F111F8CFFAF4BB0F11F460FF1BC04C
:101890006F5F7F4F8F4F9F4F16C0882311F096E9DF
:1018A00011C0772321F09EE8872F762F05C066238D
:1018B00071F096E8862F70E060E02AF09A95660F46
:1018C000771F881FDAF7880F9695879597F90895FF
:1018D00097F99F6780E870E060E008959FEF80ECE3
:1018E000089500240A941616170618060906089586
:1018F00000240A9412161306140605060895092EEC
:101900000394000C11F4882352F0BB0F40F4BF2B5A
:1019100011F460FF04C06F5F7F4F8F4F9F4F08959A
:1019200057FD9058440F551F59F05F3F71F0479590
:10193000880F97FB991F61F09F3F79F08795089575
:10194000121613061406551FF2CF4695F1DF08C094
:10195000161617061806991FF1CF869571056105B1
:1019600008940895E894BB2766277727CB0197F959
:10197000089503D008F48FEF0895990F0008550FCC
:10198000AA0BE0E8FEEF16161706E807F907C0F005
:1019900012161306E407F50798F0621B730B840B0D
:1019A000950B39F40A2661F0232B242B252B21F4E7
:1019B00008950A2609F4A140A6958FEF811D811D87
:1019C0000895A2E1B0E0E7EEFCE00C9483107C0106
:1019D0001B016A01FC0117821682838181FD03C00D
:1019E0006BC3650105C088248394912C8C0E9D1EC9
:1019F000F7019381F10193FD859193FF81911F017F
:101A0000882309F455C3853239F493FD859193FFFA
:101A100081911F01853231F4B70190E00E94BC1121
:101A20005601DFCF712C612C20E02032A8F48B32DC
:101A300061F028F4803251F0833271F40BC08D32A2
:101A400039F0803349F4216028C02260246025C029
:101A5000286023C0206121C027FD27C0382F3053C4
:101A60003A3078F426FF06C0FAE07F9E300D11244C
:101A7000732E13C04AE0649E300D1124632E206241
:101A80000CC08E3221F426FD13C3206406C08C36B0
:101A900011F4206802C0883641F4F10193FD85916C
:101AA00093FF81911F018111C0CF982F95549330DE
:101AB00018F42061805E06C0982F9556933008F088
:101AC000A4C12F7E26FD02C016E0712EBFE35B2E5F
:101AD0005222853619F4F0E45F2A07C0863619F4DD
:101AE00040E8542A02C071107A9457FE07C05BE3A5
:101AF000571548F0472C439427E00DC087E0871521
:101B000030F0272D07C027E0ACE34A2E04C027E0C1
:101B1000F7E07F2E412C560194E0A90EB11CF6018E
:101B20006081718182819381042DA4010E94CE1075
:101B30008C0149814C8740FF02C043FF07C051FC24
:101B400008C052FE09C0E0E2DE2E07C07DE2D72EBB
:101B500004C06BE2D62E01C0D12C8C858C70A1F113
:101B6000DD2011F084E001C083E0861510F0612CC7
:101B70000BC0681A53FC08C0B70180E290E00E94D5
:101B8000BC116A94C9F7F3CFDD2029F0B7018D2D80
:101B900090E00E94BC115C8553FD03C004E011E09D
:101BA0000CC000E011E009C051108052B70190E074
:101BB0000E94BC110F5F1F4F02C080E15822F80144
:101BC00084918111F1CF71C257FE0EC0400E4C8539
:101BD00044FF04C08A81813309F44A9414144CF5FB
:101BE00058E0541548F12CC056FC2AC0872D90E0CF
:101BF0008017910744F00C3F8FEF180724F090E80E
:101C0000592A01C07A94772049F0E2E0F0E0EC0F25
:101C1000FD1FE70DF11D80818033A1F357FE10C039
:101C2000472C4394872D90E00817190744F4701A45
:101C300007C04424439404C058E0452E01C0712CD1
:101C400057FE07C0101611063CF498012F5F3F4F56
:101C500005C025E030E002C021E030E0DD2011F0D9
:101C60002F5F3F4F772031F0472D50E04F5F5F4FA0
:101C7000240F351F462D50E02417350714F4621A3F
:101C800001C0612C852D897049F406C0B70180E23E
:101C900090E00E94BC116A946110F8CFDD2029F019
:101CA000B7018D2D90E00E94BC1153FC09C006C005
:101CB000B70180E390E00E94BC116A946110F8CFF4
:101CC00057FE56C0680117FF02C0C12CD12C20E07E
:101CD00030E0A801441951095E874D8728014C184E
:101CE0005D08480C591C872D90E044275527481B58
:101CF000590B588B4F875FEFC516D50649F4B701CE
:101D00008EE290E02A8B398B0E94BC1139892A8996
:101D10000C151D0554F04D855E854C155D052CF4A4
:101D2000F201E20FF31F818101C080E351E0C51A87
:101D3000D1082F5F3F4F4F855889C416D5064CF008
:101D4000B70190E02A8B398B0E94BC112A8939890E
:101D5000D2CFC016D10649F49A81963328F4953330
:101D600021F45C8554FD01C081E3B70190E04AC0D5
:101D70008A81813319F04C854F7E4C87B70190E002
:101D80000E94BC11711005C054FE16C085E490E09D
:101D900015C0B7018EE290E00E94BC1142E0D42E43
:101DA000F401ED0DF11DD394B701808190E00E9404
:101DB000BC117A94A9F7E8CF85E690E0B7010E94BC
:101DC000BC1117FD06C00115110541F45C8554FFD7
:101DD00005C01195019511098DE201C08BE2B70193
:101DE00090E00E94BC1180E303C08F5F0A5011098C
:101DF0000A301105D4F7B70190E00E94BC11B70179
:101E0000C801C0960E94BC1150C1833631F083379F
:101E100081F0833509F05EC024C0560182E0A80E2F
:101E2000B11CF60180818983CC24C394D12C840118
:101E300014C05601F2E0AF0EB11CF6010081118111
:101E400026FF03C0672D70E002C06FEF7FEFC8016F
:101E50002A8B0E94B1116C012A899FE7592E5222C8
:101E600017C05601F2E0AF0EB11CF60100811181DE
:101E700026FF03C0672D70E002C06FEF7FEFC8013F
:101E80002A8B0E94A6116C012A8980E8582E522ABA
:101E900053FC1CC006C0B70180E290E00E94BC1158
:101EA0006A94862D90E0C816D906A8F30FC0F801F1
:101EB00057FC859157FE81918F01B70190E00E94F8
:101EC000BC1161106A94F1E0CF1AD108C114D10499
:101ED00071F7EBC0843611F0893651F5560127FFB2
:101EE00009C044E0A40EB11CF601608171818281B9
:101EF00093810AC0F2E0AF0EB11CF60160817181DE
:101F0000882777FD8095982F122F1F7697FF08C09E
:101F100090958095709561957F4F8F4F9F4F10687A
:101F20002AE030E0A4010E940A12D82ED81840C03E
:101F3000122F853721F41F7E2AE030E01FC0197F61
:101F40008F36A1F020F4883509F0B2C00BC080377D
:101F500021F0883709F0ACC001C0106114FF09C03E
:101F6000146007C024FF08C0166006C028E030E0F7
:101F700005C020E130E002C020E132E0560117FF49
:101F800009C0F4E0AF0EB11CF6016081718182815D
:101F9000938108C0F2E0AF0EB11CF601608171813F
:101FA00080E090E0A4010E940A12D82ED8181F7772
:101FB00016FF0BC0212F2E7FD71450F414FF0AC038
:101FC00012FD08C0212F2E7E05C00D2D212F03C02C
:101FD0000D2D01C0072D24FF0CC0FE01ED0DF11DDC
:101FE0008081803311F4297E08C022FF05C00E5F76
:101FF00004C0822F867809F00F5F23FD14C020FFF4
:102000000FC07D2C061560F4760C701A062D08C0E2
:10201000B70180E290E02A8B0E94BC110F5F2A89F1
:102020000615B0F304C0061510F4601A01C0612C47
:1020300024FF12C0B70180E390E02A8B0E94BC11FC
:102040002A8922FF1EC021FF03C088E590E002C05C
:1020500088E790E0B7010CC0822F867891F021FDCF
:1020600002C080E201C08BE227FD8DE2B70190E063
:102070000E94BC1106C0B70180E390E00E94BC1131
:102080007A94D714C0F3DA94F401ED0DF11DB70181
:10209000808190E00E94BC11D110F5CF06C0B7013D
:1020A00080E290E00E94BC116A946110F8CF99CC54
:1020B000F7012681378102C02FEF3FEFC9016296F9
:1020C000E2E10C949F1097FB072E16F4009407D0C2
:1020D00077FD09D00E94BA1007FC05D03EF4909518
:1020E00081959F4F0895709561957F4F0895A29FA8
:1020F000B001B39FC001A39F01D0B29F700D811D9D
:102100001124911D08952F923F924F925F926F92EA
:102110007F928F929F92AF92BF92CF92DF92EF9277
:10212000FF920F931F93CF93DF93CDB7DEB7CA1BF8
:10213000DB0B0FB6F894DEBF0FBECDBF09942A8823
:10214000398848885F846E847D848C849B84AA84CB
:10215000B984C884DF80EE80FD800C811B81AA8158
:10216000B981CE0FD11D0FB6F894DEBF0FBECDBF23
:10217000ED010895AA1BBB1B51E107C0AA1FBB1F9D
:10218000A617B70710F0A61BB70B881F991F5A9503
:10219000A9F780959095BC01CD010895283008F0ED
:1021A00027E03327DA01990F311D87FD91600096F2
:1021B0006105710539F432602E5F3D9330E32A9555
:1021C000E1F708959F3F30F080387105610509F00F
:1021D0003C5F3C5F3D93913008F08068911DDF9338
:1021E000CF931F930F93FF92EF92192F987F96959D
:1021F000E92F96959695E90FFF27EE59FE4F9927FF
:102200003327EE24FF24A701E701059008940794E3
:1022100028F4360FE71EF81E491F511D660F771F61
:10222000881F991F0694A1F70590079428F4E70EDC
:10223000F81E491F561FC11D770F881F991F661F63
:102240000694A1F70590079428F4F80E491F561F2D
:10225000C71FD11D880F991F661F771F0694A1F70E
:102260000590079420F4490F561FC71FD81F990FD8
:10227000661F771F881F0694A9F784911095177021
:1022800041F0D695C79557954795F794E7941A95D9
:10229000C1F7E8E0F1E068941590159135916591EA
:1022A000959105907FE27395E118F10A430B560B67
:1022B000C90BD009C0F7E10CF11E431F561FC91FFF
:1022C000D01D7EF4703311F48A95E6CFE894015066
:1022D00030F0080F0AF40027021708F4202F239586
:1022E000022F7A3328F079E37D932A95E9F710C01D
:1022F0007D932A9589F60694979567953795179556
:102300001794E118F10A430B560BC90BD00998F04A
:1023100023957E9173957A3308F070E37C932013B4
:10232000B8F77E9170617D9330F0839571E37D9372
:1023300070E32A95E1F71124EF90FF900F911F9120
:10234000CF91DF91992787FD90950895FC01059025
:10235000615070400110D8F7809590958E0F9F1FA7
:102360000895FC016150704001900110D8F78095EC
:1023700090958E0F9F1F08950F931F93CF93DF9318
:102380008C01EB018B8181FD03C00FEF1FEF1AC0A1
:1023900082FF0DC02E813F818C819D8128173907D6
:1023A00064F4E881F9810193F983E88306C0E88544
:1023B000F985802F0995892B41F78E819F810196A0
:1023C0009F838E83C801DF91CF911F910F91089554
:1023D000AEE0B0E0EEEEF1E10C9491100D891E89B3
:1023E00086E08C831A8309838FEF9FE79E838D831A
:1023F000CE014996AC016F89788DCE0101960E947D
:10240000E10CEF81F885E00FF11F10822E96E4E0D9
:102410000C94AD10FA01AA27283051F1203181F136
:10242000E8946F936E7F6E5F7F4F8F4F9F4FAF4FDC
:10243000B1E03ED0B4E03CD0670F781F891F9A1FEF
:10244000A11D680F791F8A1F911DA11D6A0F711DA3
:10245000811D911DA11D20D009F468943F912AE0AF
:10246000269F11243019305D3193DEF6CF01089597
:10247000462F4770405D4193B3E00FD0C9F7F6CFC8
:10248000462F4F70405D4A3318F0495D31FD405290
:10249000419302D0A9F7EACFB4E0A6959795879526
:1024A00077956795BA95C9F7009761057105089505
:1024B0009B01AC010A2E06945795479537952795B1
:1024C000BA95C9F7620F731F841F951FA01D089549
:1024D000F999FECF92BD81BDF89A992780B50895EC
:1024E000A6E1B0E044E050E00C949612262FF99952
:1024F000FECF92BD81BDF89A019700B4021639F063
:102500001FBA20BD0FB6F894FA9AF99A0FBE089533
:102510000396272F0E9477120E947612252F0E9481
:102520007712242F0C947712DC01CB01FC01F9996E
:10253000FECF06C0F2BDE1BDF89A319600B40D920F
:0C25400041505040B8F70895F894FFCFC8
:10254C0025372E31660025316900433A0044493A5B
:10255C0025372E31662047616C732E004B797A65D6
:0E256C006E3A25372E31662047616C732E00C3
:00000001FF
