:100000000EC01EC01DC01CC01BC01AC019C018C025
:1000100017C016C015C014C013C012C011C01124DF
:100020001FBECFEDCDBF10E0A0E6B0E0E4E9F1E007
:1000300002C005900D92AE37B107D9F793D0A8C092
:10004000DFCFC59887FDC59AC39886FDC39AC4982B
:1000500085FDC49AC09884FDC09AC19A82E08A95B1
:10006000F1F7C19808951F93182FEBDF812F829528
:10007000807FE7DF85E88A95F1F71F9108951F9348
:10008000182FC298F0DF143018F0103840F005C077
:1000900080EA9FE00197F1F710E8109360001F914C
:1000A0000895C29AE0DF809160008F5F80936000C6
:1000B000883A71F0893A18F4843971F407C0843DA4
:1000C00019F0883E49F406C084E905C080EC03C0FD
:1000D00084ED01C080E8D3CF0895CF93DF93EC0186
:1000E00002C0DFDF219688818823D9F7DF91CF9185
:1000F00008951F93182F03C080E2D3DF11501123FE
:10010000D9F71F9108951F93B89ABC9ABB9ABD9ACC
:10011000BA9AB99AC198C29880E395E70197F1F726
:1001200080E38FDF88E090E20197F1F780E389DFD9
:1001300088EC90E00197F1F780E383DF15E8812FE9
:100140008A95F1F780E27DDF1A95F1F788E297DF73
:1001500088E095DF81E093DF86E091DF8CE08FDF40
:100160001F910895D0DF80E88ADF81E690E0B5DF57
:1001700080EC85DF88E690E0B0DF84E980DF8FE601
:1001800090E0ABDF84ED7BDF86E790E0A6DFFFCF7A
:04019000F894FFCF11
:10019400804C696E652031004C696E652032004CDC
:0E01A400696E652033004C696E6520340000E2
:00000001FF
