:100000000C9457000C9472000C9472000C947200C3
:100010000C9472000C9472000C9472000C94720098
:100020000C9472000C9472000C9472000C94720088
:100030000C9472000C9472000C9472000C94720078
:100040000C9472000C9472000C9472000C94720068
:100050000C9472004C696E652031206C6F6E676580
:1000600072207468616E203134206368617261634C
:100070007465727300616E6420616C736F204C69EB
:100080006E652032206C6F6E676572207468616ED9
:10009000203134206368617261637465727320611A
:1000A0006E64206576656E206D6F726500001124A8
:1000B0001FBECFE5D4E0DEBFCDBF11E0A0E6B0E0CB
:1000C000E4EBF6E002C005900D92A831B107D9F734
:1000D00011E0A8E1B1E001C01D92A831B107E1F73C
:1000E0000C9493000C940000CF99FECF90E080E038
:1000F0008F5F8F3FE9F79F5F9F3FC9F7CF99F4CF9D
:10010000CF9BFECF089590E0981760F420E030E098
:1001100000002F5F3F4F47E0203D3407C8F39F5F4B
:100120009817A0F30895CAE5D4E0DEBFCDBFD798F5
:10013000DF9A8FEF87BB88E888BB8CE00E94C30200
:100140000E94090280E690E00E94A30288EC0E94CF
:1001500083000E94110288EC0E9483000E94090221
:1001600021E2F22E8F2D0E947A0284E10E94830008
:10017000F3948AE78F15B0F788EC0E94830091E230
:10018000F92E8F2D0E947A02F3948AE78F15C8F713
:1001900088EC0E9483000E94090260E0862F0E9482
:1001A000F501FF2401E010E04AE050E0BE016F5F7E
:1001B0007F4FC8010E941103CE0101960E94A30245
:1001C0008CEB90E00E94A30288EC0E948300F394E1
:1001D0000F5F1F4F8BE08F1538F788EC0E9483006C
:1001E0000E94090283EC90E00E94A3028BEC90E055
:1001F0000E94A30283ED90E00E94A3028BED90E0A9
:100200000E94A30288EC0E94830082EE90E00E948C
:10021000A30288EC0E94830088EC0E948300FF24E4
:100220000E94110284E60E948300F39482E08F15FD
:10023000B8F783E0F82E0E9411028FE00E94EB01D4
:1002400088EC0E9483000E94090260E0862F0E94D1
:10025000F5018CEF90E00E94A30288EC0E948300DD
:1002600061E080E00E94F50183E091E00E94A3023A
:1002700088EC0E9483006F2D80E00E94F50188ECDD
:100280000E9483008BED90E00E94A30288EC0E9404
:10029000830062E080E00E94F5018AE091E00E9424
:1002A000A30288EC0E9483006F2D87E00E94F50175
:1002B0008AE30E947A0288EC0E9483008FE00E9409
:1002C000EB0181E191E00E94A3026F2D88E00E9482
:1002D000F50188EC0E9483000E94090284E590E009
:1002E0000E94B10288EC0E94830085E790E00E94A2
:1002F000B10288EC0E94830088EC0E9483008CE0AD
:100300000E94EB011DCFAB9A00C0AB980895CF932C
:10031000DF93982F662311F0A99A01C0A998AA9893
:10032000A49AA59AA69AA79AAF98AE98AD98AC98B9
:1003300097FDAF9AC92FDD27C6FDAE9AC5FDAD9AD0
:10034000C4FDAC9A0E948301AF98AE98AD98AC986A
:10035000C3FDAF9AC2FDAE9AC1FDAD9AC0FDAC9A85
:100360000E948301AC9AAD9AAE9AAF9ADF91CF9179
:100370000895882311F0A99A01C0A998AA9AA4986F
:10038000A598A698A798AB9A00C080E09C9980E1B8
:100390009D9980629E9980649F998068AB9800C007
:1003A000AB9A00C09C9981609D9982609E998460FF
:1003B0009F998860AB989927089580E00E94B901C1
:1003C00087FDFBCF89E090E00197F1F780E00E9484
:1003D000B901992708951F93182F0E94DD0160E04D
:1003E000812F0E9487011F910895662311F4805880
:1003F00003C0613021F480540E94EB010895623003
:1004000011F48057F9CF8053F7CF0E94DD0199276F
:10041000089581E00E94EB01089582E00E94EB01C3
:100420000895FF920F931F93CF93FF240E94DD0145
:100430001F2D105460E0812F0E9487010E94DD0172
:1004400081E00E94B901C82F0E94DD018F2D8058E4
:1004500060E00E9487010E94DD0161E08C2F0E9414
:1004600087010E94DD010F2D005760E0802F0E9460
:1004700087010E94DD0181E00E94B901C82F0E941E
:10048000DD0160E0812F0E9487010E94DD0161E0B3
:100490008C2F0E9487010E94DD01105F60E0812F98
:1004A0000E9487010E94DD0181E00E94B901C82FEE
:1004B0000E94DD0160E0802F0E9487010E94DD0123
:1004C00061E08C2F0E9487010E94DD0160E0812F96
:1004D0000E9487010E94DD0161E080E20E948701A5
:1004E000F3948FE08F1508F0A1CFCF911F910F915A
:1004F000FF900895CF93C82F0E94DD01CA3019F4F0
:100500000E94FB021EC061E08C2F0E9487010E94A6
:10051000DD01803119F460E080EC0FC0803519F402
:1005200060E080E90AC0803231F0803641F40E94F8
:1005300011020E94DD0160E080ED0E9487010E94AF
:10054000DD01CF910895CF93DF93EC01899188234A
:1005500029F00E947A0289918823D9F7DF91CF91FF
:100560000895CF93DF93EC01FC01219684918823B9
:1005700039F00E947A02FE01219684918823C9F7FE
:10058000DF91CF9108951F93182FA19AA29AA39A51
:10059000A49AA59AA69AA79A80ED99E30197F1F7F4
:1005A000AD9AAC9A0E94830189E092E10197F1F73C
:1005B0000E9483018BE390E00197F1F70E94830191
:1005C0008BE390E00197F1F7AC980E9483018BE3F5
:1005D00090E00197F1F788E20E94EB0188E00E9429
:1005E000EB010E94090286E00E94EB01812F0E942C
:1005F000EB011F910895982F803110F480E40DC015
:100600008054803110F480E108C09051903320F084
:100610000E9411020E94DD0180E580580E94EB01DA
:100620000895E62FF72F2E2F3F2FE8944230CCF07D
:100630004532BCF44A3029F497FB1EF4909581951D
:100640009F4F642F77270E944603805D8A330CF00A
:10065000895D8193862F972F009799F716F45DE2B5
:100660005193932F822F10820C943603DC01FC01EE
:1006700001900020E9F73297AE17BF0730F47C9164
:100680006081708331976D93F7CF0895AA1BBB1BD0
:1006900051E107C0AA1FBB1FA617B70710F0A61B82
:1006A000B70B881F991F5A95A9F780959095BC01A3
:0406B000CD010895DB
:1006B4004C43442054657374204C696E652031208A
:1006C40061206C6974746C65206C6F6E6765722050
:1006D40076657279206C6F6E67206C6F6E676572D9
:1006E40020616E64206C6F6E6720616E64206C6F95
:1006F4006E672076657279206C6F6E67206C696E08
:10070400652074686973206F6E650A002E6C696ECB
:10071400650A004C696E6520310A004C696E6520DB
:10072400320A004C696E6520330A004C696E6520FC
:1007340034004C696E6520313233343536373839FC
:100744003031323334353637383930004C696E65E0
:100754002031004C696E652032004C696E6520338F
:08076400004375724F6E0000A6
:00000001FF
